:03000000020008F3
:0300610002000397
:0500030012008C80FEDC
:040064007A007B00A3
:0E006800C374649A74808BF063F08095F0404E
:05007600147C657D0013
:05007B001CBCFF011D8B
:0B008000EC4D70F70ABA00E00B80DDC9
:01008B002252
:0C008C00C290120064D29012006480F454
:06003700E478FFF6D8FD9D
:080015007900E94400601B7A48
:05001D000090009C783A
:030022000075A0C6
:0A00250000E493F2A308B8000205FE
:08002F00A0D9F4DAF275A0FF7C
:08003D007800E84400600A7934
:030045000075A0A3
:0600480000E4F309D8FCFE
:08004E007800E84400600C7921
:0B00560000900000E4F0A3D8FCD9FAF1
:03000800758107F8
:0A000B00120098E582600302000372
:04009800758200224B
:00000001FF
